:020000040800F2
:10000000000001206D190008691800087118000827
:1000100079180008811800088918000800000000FD
:10002000000000000000000000000000911800081F
:100030009F18000800000000AD180008BB18000859
:10004000BD190008BD190008BD190008BD19000838
:10005000BD190008BD190008BD190008BD19000828
:10006000BD190008BD190008BD190008BD19000818
:10007000BD190008BD190008BD190008BD19000808
:10008000BD190008BD190008BD19000800000000D6
:10009000000000000000000000000000BD19000882
:1000A000BD190008BD190008BD190008BD190008D8
:1000B000BD190008BD190008BD190008BD190008C8
:1000C000BD190008BD190008BD190008BD190008B8
:1000D000BD190008BD190008BD1900080000000086
:1000E000BD190008BD190008BD1900080000000076
:1000F000000000000000000000000000BD19000822
:1001000000000000BD190008BD190008BD19000855
:1001100000000000000000000000000000000000DF
:10012000BD190008BD190008BD190008C91800084C
:10013000BD190008000000000000000000000000E1
:10014000000000000000000000000000BD190008D1
:10015000BD190008BD190008BD190008BD19000827
:10016000BD190008BD1900080000000000000000D3
:10017000000000000000000000000000000000007F
:1001800000000000BD190008000000000000000091
:04019000BD1900088D
:1001A00010B5054C237833B9044B13B10448AFF3B1
:1001B00000800123237010BD7800002000000000A3
:1001C0001871000808B5034B1BB103490348AFF38E
:1001D000008008BD000000007C00002018710008AD
:1001E000034613F8012B002AFBD1181A0138704777
:1001F00001F0FF01102A2BDB10F0070F08D010F8D8
:10020000013B013A8B422DD010F0070F42B3F6D1DB
:10021000F0B441EA012141EA014122F007047FF0F4
:1002200000070023F0E80256083C85EA010586EA4B
:10023000010685FA47F5A3FA87F586FA47F6A5FA87
:1002400087F68EB9EED1F0BC01F0FF0102F0070293
:1002500032B110F8013B013A83EA010313B1F8D13E
:100260000020704701387047002D06BF354603381F
:10027000073815F0010F07D1013015F4807F02BF58
:10028000013015F4C03F0130F0BC0138704700BFA9
:1002900053B94AB9002908BF00281CBF4FF0FF31ED
:1002A0004FF0FF3000F088B9ADF1080C6DE904CED5
:1002B00000F006F8DDF804E0DDE9022304B0704741
:1002C0002DE9F047089D8E4604468846002B4AD10A
:1002D0008A42174662D9B2FA82F64EB1C6F12003BD
:1002E00001FA06F820FA03F3B74043EA0808B440DD
:1002F0004FEA174E1FFA87FCB8FBFEF1230C0EFBEA
:10030000118843EA084301FB0CF29A4209D9FB1811
:1003100001F1FF3080F0EA809A4240F2E780023932
:100320003B449A1AA3B2B2FBFEF00EFB102243EA42
:10033000024300FB0CFC9C4509D9FB1800F1FF327D
:1003400080F0D6809C4540F2D3803B44023840EA9E
:100350000140A3EB0C0300211DB1F3400022C5E9CD
:100360000032BDE8F0878B4205D90DB1C5E9000127
:1003700000210846F5E7B3FA83F1002946D1734519
:1003800002D3824200F20581841A6EEB030201203F
:100390009046002DE5D0C5E90048E2E7002A00F0CC
:1003A0009080B2FA82F6002E40F0A4808A1A030CE4
:1003B0004FEA174E80B2BCB20121B2FBFEFC0EFB2D
:1003C0001C2243EA024304FB0CF29A4207D9FB18B1
:1003D0000CF1FF3802D29A4200F2E080C4469B1A28
:1003E000B3FBFEF20EFB123340EA034302FB04F4BC
:1003F0009C4207D9FB1802F1FF3002D29C4200F266
:10040000CA8002461B1B42EA0C40A5E7C1F1200648
:100410008B4022FA06F71F430EFA01F420FA06F386
:100420002EFA06FE4FEA1749234300FA01F81FFA95
:1004300087FCBEFBF9F01C0C09FB10EE44EA0E44ED
:1004400000FB0CFEA64502FA01F209D93C1900F1A5
:10045000FF3A80F09C80A64540F2998002383C44E7
:10046000A4EB0E041FFA83FEB4FBF9F309FB13445B
:100470004EEA044403FB0CFCA44508D93C1903F1E3
:10048000FF3E80F08280A4457FD9023B3C4443EA92
:100490000040A4EB0C04A0FB02EC64457346E1466B
:1004A00062D35FD05DB1B8EB030264EB090404FAD8
:1004B00006F622FA01F31E43CC40C5E90064002190
:1004C0004FE7B1FBF2FC010C41EA0E4180B240EA79
:1004D00001423B4638463C46B846BE462026B1FB64
:1004E000F7F1A2EB080241EA0C4166E7014618E782
:1004F00010462CE7C6F120022EFA02F3B740B140B5
:1005000020FA02F24FEA174E0A43B3FBFEF8BCB2E0
:100510000EFB1833110C41EA034108FB04F9B0400B
:1005200089454FEA104380B23ED9791808F1FF3C63
:1005300001D289451FD8A1EB0901B1FBFEF909FBE6
:1005400004F80EFB191192B242EA0142424529D247
:10055000BA1809F1FF31C4D24245C2D2A9F1020151
:100560003A44BEE7F0459DD2BEEB02036CEB070CAC
:100570000138E14696E7A7EB09094944A8F1020CC6
:10058000B1FBFEF909FB04F8DBE773467FE7504651
:1005900066E70846FDE63B44023A33E7ACF1020C5D
:1005A0003B441CE749469CE7A1EB0901C446B1FB6B
:1005B000FEF909FB04F8C4E7704700BF80B5ADF54C
:1005C0001E7D04AF07F51A73A3F51973186007F5BC
:1005D0001A73A3F5197307F124000122196805F0B5
:1005E0002FFA034687F85B3297F85B32002B40F016
:1005F000958007F124033621184605F0C2FDEF234C
:10060000C7F864327FE007F1200307F124004FF4BC
:100610003472514905F0CEFB034687F85B3297F8F8
:100620005B32002B74D107F51A73A3F512731B68A4
:10063000B3F5347F6CD30023C7F860320023C7F8CA
:100640005C324DE0D7F860325A1CC7F86022424A4B
:10065000D35C87F85A32D7F860325A1CC7F8602248
:100660003D4AD35C87F85932D7F860325A1CC7F834
:100670006022394AD35C87F8583297F858321BB257
:100680001B021BB223F4FF6323F007031AB297F88F
:1006900059321BB2DB001BB203F4FC631BB21343E1
:1006A0001AB297F85A32DB08DBB21BB213431BB203
:1006B000A7F85632B7F956321B021AB2B7F85632BB
:1006C0001B0A9BB21BB213431BB299B2234AD7F841
:1006D0005C3222F81310D7F85C320133C7F85C3271
:1006E000D7F85C32EF2BADDDD7F8643299B21B4BF3
:1006F00000930123F022002000F0B0FAD7F8643212
:10070000013BC7F86432D7F86432002BBFF67BAFE9
:1007100007F12403184605F00AFD17E097F85B225D
:1007200007F10C030E49184606F056F807F10C03C2
:100730000393022302930B4B0193012300930023A5
:100740004FF478420A210A2000F06AFE00BF07F544
:100750001A77BD4680BD00BFA401002074040020AC
:10076000307100080000002080B5ADF5187D04AFA1
:1007700001F026F900F090F800F084F900F062F939
:1007800000F0F4F800F028F902F026FE012204211E
:100790003A4801F02BFF01220821384801F026FFDA
:1007A00000F0DEF9012000F0FFFE002000F03AFB2F
:1007B0004FF4FA7001F076F9314B1B681A68304B30
:1007C0001B6822F040021A600A2001F06BF92C4BE2
:1007D0001B681A682A4B1B6842F040021A6007F136
:1007E000180301222749184605F0E4F8034687F864
:1007F0004F3207F1180301222249184605F0DAF8B2
:10080000034687F84F3297F84F32002B19D11E4B11
:100810000393022302931D4B0193012300930023B2
:100820004FF4FC626E210A2000F0FAFD4FF47A705A
:1008300001F038F9002000F0F5FA1548FFF7BEFE88
:1008400019E0002000F0EEFA97F84F223B1D114905
:10085000184605F0C1FF3B1D0393022302930B4B87
:1008600001930123009300234FF478426E210A2064
:1008700000F0D6FD00BF00BFFDE700BF0000024052
:10088000EC000020407100084471000800000020C6
:10089000547100085C71000880B594B000AF07F196
:1008A000200330220021184605F0B8FF07F10C03A1
:1008B00000221A605A609A60DA601A610023BB60F5
:1008C000284B1B6C274A43F080531364254B1B6C49
:1008D00003F08053BB60BB6800237B60224B1B6826
:1008E00023F44043204A43F4004313601E4B1B682B
:1008F00003F440437B607B6802233B620123FB627D
:1009000010233B630223BB630023FB6308233B6488
:1009100054237B640223BB640423FB6407F120039C
:10092000184601F07DFE0346002B01D000F012F9BD
:100930000F23FB6002233B6100237B614FF4805354
:10094000BB610023FB6107F10C030221184602F092
:10095000DFF80346002B01D000F0FCF800BF503751
:10096000BD4680BD003802400070004080B500AF39
:10097000174B184A1A60164B4FF482725A60144B88
:1009800000229A60124B0022DA60114B02221A6197
:100990000F4B01225A610E4B4FF400729A610C4BBF
:1009A0000822DA610A4B00221A62094B00225A62BD
:1009B000074B00229A62064B0A22DA62044802F0D0
:1009C00053FA0346002B01D000F0C4F800BF80BDED
:1009D000940000200030014080B500AF174B184A4A
:1009E0001A60164B4FF482725A60144B00229A60C0
:1009F000124B0022DA60114B00221A610F4B0022C9
:100A00005A610E4B4FF400729A610C4B2022DA614E
:100A10000A4B00221A62094B00225A62074B00223D
:100A20009A62064B0A22DA62044802F01DFA034673
:100A3000002B01D000F08EF800BF80BDEC0000203C
:100A40000038004080B582B000AF00237B600C4BC3
:100A50001B6B0B4A43F480031363094B1B6B03F4BA
:100A600080037B607B68002200213B2001F019F9A4
:100A70003B2001F032F900BF0837BD4680BD00BF02
:100A80000038024080B588B000AF07F10C030022A7
:100A90001A605A609A60DA601A610023BB602A4BC0
:100AA0001B6B294A43F080031363274B1B6B03F036
:100AB0008003BB60BB6800237B60234B1B6B224A17
:100AC00043F001031363204B1B6B03F001037B60B6
:100AD0007B6800233B601C4B1B6B1B4A43F00203EB
:100AE0001363194B1B6B03F002033B603B6800224E
:100AF0001B21164801F07AFD01224FF48051144861
:100B000001F074FD1B23FB6001233B6100237B612B
:100B10000023BB6107F10C0319460C4801F0E2FB0E
:100B20004FF48053FB6001233B6100237B61002372
:100B3000BB6107F10C031946054801F0D3FB00BF68
:100B40002037BD4680BD00BF003802400000024093
:100B50000004024080B400AF72B600BF00BFFDE7E2
:100B600080B500AFC82000F09DFF084BF0221A802E
:100B7000074BF0221A8000F00FF800F0C1F805488A
:100B800000F022F800F014F800BF80BD58060020E5
:100B90005A060020847D000880B500AF0022102195
:100BA000024801F023FD00BF80BD00BF00040240E9
:100BB00080B500AF01221021024801F017FD00BFEF
:100BC00080BD00BF0004024080B584B000AF7860F3
:100BD0007B685A1C7A601B78FB7334E07B685A1C74
:100BE0007A601B78FB72FB7A184600F09DF87B68F0
:100BF0005A1C7A601B78BB72BB7A9BB203F08003ED
:100C0000BB81BB7A03F07F03BB72BB7A002B08D099
:100C1000BB7A1946786800F0C7F8BB7A7A68134443
:100C20007B60BB89002B0ED07B685A1C7A601B78D6
:100C3000BB81BB89FF2B02D14FF4FA73BB81BB8907
:100C4000184600F02FFFFB7B5A1EFA73002BC5D10C
:100C500000BF00BF1037BD4680BD000090B583B017
:100C600000AF0446084611461A462346FB80034659
:100C7000BB800B467B8013463B801F4B1B88FA884A
:100C80009A4231D21D4B1B88BA889A422CD2FA88DC
:100C90007B881344184A1288934227DCBA883B8821
:100CA0001344164A1288934222DCFA887B88134444
:100CB0009BB2013B9CB2BA883B8813449BB2013B78
:100CC0009BB2B988F888224600F024F9FFF764FF48
:100CD0007B883A8802FB03F35B001946B86900F091
:100CE00063F8FFF765FF04E000BF02E000BF00E02B
:100CF00000BF0C37BD4690BD580600205A060020A4
:100D000080B500AF00220121064801F06FFC1420DD
:100D100000F0C8FE01220121024801F067FC00BF7B
:100D200080BD00BF0000024080B582B000AF034626
:100D3000FB71002202210D4801F058FCF91D4FF013
:100D4000FF3301220A4802F018F900BF084802F0F8
:100D500058FA0346012BF9D101220221034801F080
:100D600045FC00BF0837BD4680BD00BF0000024003
:100D70009400002080B582B000AF0346FB71F91DDE
:100D80004FF0FF330122074802F0F7F800BF054893
:100D900002F037FA0346012BF9D100BF00BF083734
:100DA000BD4680BD9400002080B582B000AF786061
:100DB00039603B68B3F5803F1AD23B689AB24FF076
:100DC000FF337968164802F0D8F81DE04FF0FF3382
:100DD0004FF6FF727968124802F0CFF83B68A3F52E
:100DE0007F43FF3B3B607B6803F57F43FF337B60C2
:100DF0003B68B3F5803FE9D23B689AB24FF0FF33CE
:100E00007968074802F0B9F800BF054802F0F9F91F
:100E10000346012BF9D100BF00BF0837BD4680BD96
:100E20009400002080B584B002AF0346FB80084BDD
:100E30001B881AB2074B1B8819B2FB8800930B461C
:100E40000021002000F008F800BF0837BD4680BD33
:100E5000580600205A06002090B583B000AF044623
:100E6000084611461A462346FB800346BB800B46C4
:100E70007B8013463B80B7F90630244A12889342A0
:100E800040DAB7F90430224A128893423ADAB7F9C5
:100E90000620B7F9023013441C4A1288934205DD3C
:100EA0001A4B1A88FB88D31A9BB27B80B7F90420AF
:100EB000B7F900301344164A1288934205DD144BEB
:100EC0001A88BB88D31A9BB23B80F888B988FA8805
:100ED0007B8813449BB2013B9CB2BA883B88134485
:100EE0009BB2013B9BB2224600F014F8B7F90030E8
:100EF000B7F9022002FB03F3194607F1180000F0CE
:100F00002FF800E000BF0C37BD4690BD580600200A
:100F10005A06002090B583B000AF0446084611463B
:100F20001A462346FB800346BB800B467B80134654
:100F30003B80FFF731FE7A88FB881146184600F0A7
:100F400033F83A88BB881146184600F06FF82C2019
:100F5000FFF7EAFEFFF72CFE00BF0C37BD4690BD41
:100F600080B584B000AF78603960FFF715FE7B680C
:100F70001B881B0A9BB2DBB23B737B681B88DBB20E
:100F80007B7305E007F10C0302211846FFF70CFF05
:100F90003B685A1E3A60002BF4D1FFF709FE00BFF0
:100FA0001037BD4680BD000080B582B000AF03465B
:100FB0000A46FB801346BB80FA88BB889A422AD82F
:100FC000184B1B88BA889A4227D8174B1A88FB8877
:100FD0001344FB80144B1A88BB881344BB802A201F
:100FE000FFF7A2FEFB881B0A9BB2DBB21846FFF795
:100FF000C1FEFB88DBB21846FFF7BCFEBB881B0AAC
:101000009BB2DBB21846FFF7B5FEBB88DBB21846D1
:10101000FFF7B0FE02E000BF00E000BF0837BD46AA
:1010200080BD00BF580600205406002080B582B065
:1010300000AF03460A46FB801346BB80FA88BB8894
:101040009A422AD8184B1B88BA889A4227D8174B3D
:101050001A88FB881344FB80144B1A88BB881344FE
:10106000BB802B20FFF760FEFB881B0A9BB2DBB224
:101070001846FFF77FFEFB88DBB21846FFF77AFEC3
:10108000BB881B0A9BB2DBB21846FFF773FEBB8816
:10109000DBB21846FFF76EFE02E000BF00E000BFC3
:1010A0000837BD4680BD00BF5A0600205606002006
:1010B00080B582B000AF0346FB800B46BB80134671
:1010C0007B80B7F90630002B1BDBB7F906300F4ADF
:1010D0001288934215DAB7F90430002B11DBB7F907
:1010E00004300B4A128893420BDAF888B988FA88E0
:1010F000BB88FFF70FFFBB1C01211846FFF730FF2D
:1011000000E000BF0837BD4680BD00BF5806002084
:101110005A06002090B589B000AF04460846114633
:101120001A462346FB800346BB800B467B80134652
:101130003B80FB883B61BB88FB6097F83830002B15
:1011400002D1012387F83830904B1B881946FB8861
:101150007A6B12781344994209DA8D4B1B88194631
:10116000BB887A6B527813449942C0F254810023B1
:10117000FB6149E197F83C307E2B10D87B6B5A68B5
:1011800097F83C30203B796B497801FB03F3194613
:10119000FB690B445B0013441B88BB61B8E097F804
:1011A0003C30BF2B10D97B6B5A6897F83C30603BC2
:1011B000796B497801FB03F31946FB690B445B002B
:1011C00013441B88BB61A3E097F83C30A82B10D1D7
:1011D0007B6B5A687B6B5B7819460B469B000B4414
:1011E0005B011946FB690B445B0013441B88BB6120
:1011F0008EE097F83C30B82B11D17B6B59687B6B34
:101200005B781A4613469B0013445B0113441A464D
:10121000FB6913445B000B441B88BB6178E097F8C3
:101220003C30AA2B0FD17B6B5A687B6B5B781946DD
:10123000A22301FB03F31946FB690B445B00134433
:101240001B88BB6164E097F83C30AF2B0FD17B6B00
:101250005A687B6B5B781946A32301FB03F319469D
:10126000FB690B445B0013441B88BB6150E097F89B
:101270003C30B22B0FD17B6B5A687B6B5B78194685
:10128000A42301FB03F31946FB690B445B001344E1
:101290001B88BB613CE097F83C30B32B11D17B6BD2
:1012A0005A687B6B5B7819460B469B000B445901CF
:1012B0000B441946FB690B445B0013441B88BB615C
:1012C00026E097F83C30BA2B0FD17B6B5A687B6BCA
:1012D0005B781946A62301FB03F31946FB690B440F
:1012E0005B0013441B88BB6112E097F83C30BF2BB6
:1012F0000ED17B6B5A687B6B5B781946A72301FB89
:1013000003F31946FB690B445B0013441B88BB6164
:1013100000237B6168E0BA697B6902FA03F303F496
:101320000043002B28D00023BB721FE00023FB7278
:1013300014E0FB7A9AB23B699BB213449BB218B299
:10134000BB7A9AB2FB689BB213449BB21BB27A88F9
:101350001946FFF7ADFEFB7A0133FB72FA7A97F874
:1013600038309A42E5D3BB7A0133BB72BA7A97F828
:1013700038309A42DAD32FE097F83030002B2BD058
:101380000023BB7223E00023FB7218E05806002004
:101390005A060020FB7A9AB23B699BB213449BB277
:1013A00018B2BB7A9AB2FB689BB213449BB21BB2D1
:1013B0003A881946FFF77CFEFB7A0133FB72FA7A12
:1013C00097F838309A42E5D3BB7A0133BB72BA7AC8
:1013D00097F838309A42D6D397F838303A691344A0
:1013E0003B617B6901337B617B6B1B781A467B69B0
:1013F000934290D3FB883B6197F83830FA681344E6
:10140000FB60FB690133FB617B6B5B781A46FB6910
:101410009342FFF4AFAE00BF2437BD4690BD00BF7E
:1014200090B589B004AF0446084611461A462346D3
:10143000FB800346BB800B467B8013463B8097F8BE
:101440002830002B02D1012387F82830F86AFEF7F4
:10145000C7FE0346BB819CE0FB6A1B78BF2B77D994
:10146000FB6A1B78D02B02D0D12B2CD05BE0FB6A1F
:101470000133FB62FB6A1B788F2B08D9FB6A1B7850
:10148000BF2B04D8FB6A1B783033FB7348E0FB6A40
:101490001B78812B02D1A823FB7344E0FB6A1B78E5
:1014A000842B02D1AA23FB733DE0FB6A1B78862BB9
:1014B00002D1B223FB7336E0FB6A1B78872B2FD156
:1014C000AF23FB732FE0FB6A0133FB62FB6A1B78DF
:1014D0005BB2002B08DAFB6A1B788F2B04D8FB6AFF
:1014E0001B787033FB731DE0FB6A1B78912B02D1D4
:1014F000B823FB7317E0FB6A1B78942B02D1BA2345
:10150000FB7310E0FB6A1B78962B02D1B323FB73AD
:1015100009E0FB6A1B78972B04D1BF23FB7302E021
:1015200000BF00E000BFBB89013BBB813C887A88DB
:10153000B988F888FB7B039397F8283002937B6A7D
:10154000019397F8203000932346FFF7E3FD11E065
:10155000FB6A1B783C887A88B988F888039397F8E7
:10156000283002937B6A019397F82030009323463A
:10157000FFF7D0FD7B6A1B781A4697F828309BB29C
:1015800012FB03F39AB2FB881344FB80FB6A01331E
:10159000FB62BB895A1EBA81002B7FF45DAF00BF8E
:1015A00000BF1437BD4690BD80B582B000AF034682
:1015B000FB71FFF7F1FA3620FFF7B6FBFB79013B31
:1015C000032B57D801A252F823F000BFDD15000805
:1015D00003160008291600084F1600080020FFF720
:1015E000C9FB284BF0221A80274BF0221A80274B88
:1015F00000221A80264B00221A800020FFF712FCDE
:1016000039E06020FFF7B6FB1E4BF0221A801E4B1C
:10161000F0221A801D4B00221A801D4B00221A80D6
:101620000020FFF7FFFB26E0C020FFF7A3FB154BD0
:10163000F0221A80144BF0221A80144B00221A80D8
:10164000134B50221A800020FFF7ECFB13E0A02080
:10165000FFF790FB0B4BF0221A800B4BF0221A8005
:101660000A4B50221A800A4B00221A800020FFF7F2
:10167000D9FB00E000BFFFF79BFA00BF0837BD466B
:1016800080BD00BF580600205A06002054060020E6
:101690005606002080B483B000AF00237B60104B5F
:1016A0005B6C0F4A43F4804353640D4B5B6C03F453
:1016B00080437B607B6800233B60094B1B6C084ABE
:1016C00043F080531364064B1B6C03F080533B6064
:1016D0003B6800BF0C37BD465DF8047B704700BF18
:1016E0000038024080B58CB000AF786007F11C0371
:1016F00000221A605A609A60DA601A617B681B687F
:10170000524A93425BD10023BB61514B5B6C504A00
:1017100043F4805353644E4B5B6C03F48053BB61C2
:10172000BB6900237B614A4B1B6B494A43F00103B1
:101730001363474B1B6B03F001037B617B69E02361
:10174000FB6102233B6200237B620323BB62052310
:10175000FB6207F11C0319463E4800F0C3FD3E4BF7
:101760003E4A1A603C4B4FF0C0625A603A4B4022EE
:101770009A60394B0022DA60374B4FF480621A616D
:10178000354B00225A61344B00229A61324B0022C1
:10179000DA61314B4FF400321A622F4B00225A6249
:1017A0002D4800F0B5FA0346002B01D0FFF7D2F91F
:1017B0007B68294A9A64284A7B68936342E07B6885
:1017C0001B68274A93423DD100233B61204B1B6C91
:1017D0001F4A43F4804313641D4B1B6C03F4804386
:1017E0003B613B690023FB60194B1B6B184A43F0BC
:1017F00002031363164B1B6B03F00203FB60FB68D1
:101800004FF42043FB6102233B6200237B620123F0
:10181000BB620523FB6207F11C031946114800F067
:1018200061FD4FF48043FB6102233B6201237B6235
:101830000123BB620523FB6207F11C03194609481B
:1018400000F050FD00BF3037BD4680BD0030014084
:101850000038024000000240440100205864024069
:10186000003800400004024080B400AF00BFFDE734
:1018700080B400AF00BFFDE780B400AF00BFFDE75C
:1018800080B400AF00BFFDE780B400AF00BFFDE74C
:1018900080B400AF00BFBD465DF8047B704780B4E4
:1018A00000AF00BFBD465DF8047B704780B400AF59
:1018B00000BFBD465DF8047B704780B500AF00F007
:1018C000D1F800BF80BD000080B500AF024800F035
:1018D000CDFA00BF80BD00BF4401002080B586B0B6
:1018E00000AF7860144A154BD31A7B617B693B616A
:1018F000134B1B68002B02D1114B124A1A60104B7C
:101900001A687B6813443A699A4207D204F08EFF42
:1019100003460C221A604FF0FF3309E0084B1B68A6
:10192000FB60074B1A687B681344054A1360FB6829
:1019300018461837BD4680BD000001200004000095
:101940005C060020E809002080B400AF064BD3F805
:101950008830054A43F47003C2F8883000BFBD46A2
:101960005DF8047B704700BF00ED00E0DFF834D085
:10197000FFF7EAFF0C480D490D4A002302E0D45856
:10198000C4500433C4188C42F9D30A4A0A4C0023C9
:1019900001E013600432A242FBD304F04DFFFEF7D6
:1019A000E3FE7047000001200000002078000020C6
:1019B0004482000878000020E8090020FEE70000CB
:1019C00080B500AF0E4B1B680D4A43F400731360E3
:1019D0000B4B1B680A4A43F480631360084B1B6877
:1019E000074A43F480731360032000F04FF90F207F
:1019F00000F008F8FFF74EFE0023184680BD00BF38
:101A0000003C024080B582B000AF7860124B1A688B
:101A1000124B1B7819464FF47A73B3FBF1F3B2FB08
:101A2000F3F3184600F067F90346002B01D00123B9
:101A30000EE07B680F2B0AD8002279684FF0FF3048
:101A400000F02FF9064A7B681360002300E00123B1
:101A500018460837BD4680BD080000201000002051
:101A60000C00002080B400AF064B1B781A46064BD2
:101A70001B681344044A136000BFBD465DF8047B35
:101A8000704700BF100000206006002080B400AF47
:101A9000034B1B681846BD465DF8047B704700BFCA
:101AA0006006002080B584B000AF7860FFF7EEFFDD
:101AB000B8607B68FB60FB68B3F1FF3F05D00A4B61
:101AC0001B781A46FB681344FB6000BFFFF7DEFF7C
:101AD0000246BB68D31AFA689A42F7D800BF00BF23
:101AE0001037BD4680BD00BF1000002080B485B017
:101AF00000AF78607B6803F00703FB600C4BDB688A
:101B0000BB60BA684FF6FF031340BB60FB681A0264
:101B1000BB68134343F0BF6343F40033BB60044A24
:101B2000BB68D36000BF1437BD465DF8047B7047C7
:101B300000ED00E080B400AF044BDB681B0A03F04B
:101B400007031846BD465DF8047B704700ED00E0D2
:101B500080B483B000AF0346FB7197F90730002BC8
:101B60000BDBFB7903F01F02074997F907305B098C
:101B7000012000FA02F241F8232000BF0C37BD46D5
:101B80005DF8047B704700BF00E100E080B483B0E3
:101B900000AF03463960FB7197F90730002B0ADB71
:101BA0003B68DAB20C4997F907301201D2B20B4404
:101BB00083F800230AE03B68DAB20849FB7903F0B6
:101BC0000F03043B1201D2B20B441A7600BF0C374C
:101BD000BD465DF8047B704700E100E000ED00E0E9
:101BE00080B489B000AFF860B9607A60FB6803F038
:101BF0000703FB61FB69C3F10703042B28BF042320
:101C0000BB61FB690433062B02D9FB69033B00E08F
:101C100000237B614FF0FF32BB6902FA03F3DA4322
:101C2000BB681A407B699A404FF0FF317B6901FA2B
:101C300003F3D9437B680B40134318462437BD4652
:101C40005DF8047B7047000080B582B000AF78601B
:101C50007B68013BB3F1807F01D301230FE00A4A87
:101C60007B68013B53600F214FF0FF30FFF78EFF81
:101C7000054B00229A60044B07221A600023184685
:101C80000837BD4680BD00BF10E000E080B582B0DF
:101C900000AF78607868FFF729FF00BF0837BD46BE
:101CA00080BD80B586B000AF0346B9607A60FB7333
:101CB00000237B61FFF73EFF78617A68B968786935
:101CC000FFF78EFF024697F90F3011461846FFF7CF
:101CD0005DFF00BF1837BD4680BD80B582B000AF44
:101CE0000346FB7197F907301846FFF731FF00BF35
:101CF0000837BD4680BD80B582B000AF7860786897
:101D0000FFF7A2FF034618460837BD4680BD000016
:101D100080B586B000AF786000237B61FFF7B6FE28
:101D200038617B68002B01D1012399E07B68022296
:101D300083F835207B68002283F834207B681B6899
:101D40001A687B681B6822F001021A600FE0FFF737
:101D50009DFE02463B69D31A052B08D97B682022D9
:101D60005A657B68032283F83520032378E07B687B
:101D70001B681B6803F00103002BE8D17B681B681C
:101D80001B687B617A69384B13407B617B685A68BA
:101D90007B689B681A437B68DB681A437B681B6916
:101DA0001A437B685B691A437B689B691A437B68AB
:101DB000DB691A437B681B6A13437A6913437B61AF
:101DC0007B685B6A042B07D17B68DA6A7B681B6BD4
:101DD00013437A6913437B617B681B687A691A60D5
:101DE0007B681B685B697B617B6923F007037B6110
:101DF0007B685B6A7A6913437B617B685B6A042B4F
:101E000017D17B689B6A7A6913437B617B68DB6AC5
:101E1000002B0ED0786800F0E9F90346002B08D0BB
:101E20007B6840225A657B68012283F835200123B4
:101E300016E07B681B687A695A61786800F0A0F93F
:101E40000346FB607B68DB6D3F229A40FB689A602B
:101E50007B6800225A657B68012283F835200023C5
:101E600018461837BD4680BD3F8010F080B586B05B
:101E700000AF78600023BB608E4B1B688E4AA2FBCC
:101E800003239B0A7B617B689B6D3B613B691B68FD
:101E9000FB607B68DB6D08229A40FB681340002BD7
:101EA0001AD07B681B681B6803F00403002B13D057
:101EB0007B681B681A687B681B6822F004021A6042
:101EC0007B68DB6D08229A403B699A607B685B6D9A
:101ED00043F001027B685A657B68DB6D01229A4002
:101EE000FB681340002B12D07B681B685B6903F012
:101EF0008003002B0BD07B68DB6D01229A403B698D
:101F00009A607B685B6D43F002027B685A657B6870
:101F1000DB6D04229A40FB681340002B12D07B68D3
:101F20001B681B6803F00203002B0BD07B68DB6D82
:101F300004229A403B699A607B685B6D43F004021F
:101F40007B685A657B68DB6D10229A40FB68134002
:101F5000002B43D07B681B681B6803F00803002B31
:101F60003CD07B68DB6D10229A403B699A607B68AD
:101F70001B681B6803F48023002B18D07B681B6848
:101F80001B6803F40023002B08D17B681B6C002B1B
:101F900024D07B681B6C786898471FE07B689B6C3B
:101FA000002B1BD07B689B6C7868984716E07B6899
:101FB0001B681B6803F48073002B07D17B681B68C8
:101FC0001A687B681B6822F008021A607B681B6C29
:101FD000002B03D07B681B6C786898477B68DB6DAF
:101FE00020229A40FB681340002B00F08F807B6812
:101FF0001B681B6803F01003002B00F087807B68D0
:10200000DB6D20229A403B699A607B6893F83530FB
:10201000DBB2052B36D17B681B681A687B681B68AE
:1020200022F016021A607B681B685A697B681B687D
:1020300022F080025A617B681B6C002B03D17B6805
:102040009B6C002B07D07B681B681A687B681B6839
:1020500022F008021A607B68DB6D3F229A403B69E0
:102060009A607B68012283F835207B68002283F820
:1020700034207B681B6D002B7ED07B681B6D7868DD
:10208000984779E07B681B681B6803F48023002B6A
:102090001DD07B681B681B6803F40023002B0DD147
:1020A0007B685B6C002B31D07B685B6C78689847F1
:1020B0002CE000BF08000020B5814E1B7B68DB6B65
:1020C000002B23D07B68DB6B786898471EE07B6829
:1020D0001B681B6803F48073002B0FD17B681B689F
:1020E0001A687B681B6822F010021A607B68012264
:1020F00083F835207B68002283F834207B68DB6B13
:10210000002B03D07B68DB6B786898477B685B6D3E
:10211000002B32D07B685B6D03F00103002B22D0D3
:102120007B68052283F835207B681B681A687B680A
:102130001B6822F001021A60BB680133BB607A6938
:102140009A4207D37B681B681B6803F00103002BCE
:10215000F2D100E000BF7B68012283F835207B6864
:10216000002283F834207B68DB6C002B05D07B6871
:10217000DB6C7868984700E000BF1837BD4680BD2B
:1021800080B485B000AF78607B681B68DBB2103B21
:10219000144AA2FB03231B09FB60134AFB68134488
:1021A0001B781A467B68DA65FB68032B09D97B68C4
:1021B0001B6823F47F7323F003031A1D7B689A6561
:1021C00007E07B681B6823F47F7323F003037A68BE
:1021D00093657B689B6D18461437BD465DF8047B9C
:1021E000704700BFABAAAAAAB87D000880B485B02A
:1021F00000AF78600023FB737B689B6ABB607B68E1
:102200009B69002B1FD1BB68032B56D801A252F843
:1022100023F000BF252200083722000825220008ED
:10222000BB2200087B68DB6A03F08073002B46D07A
:102230000123FB7343E07B68DB6AB3F1C07F40D1CD
:102240000123FB733DE07B689B69B3F5005F21D1FF
:10225000BB68032B37D801A252F823F06D22000887
:10226000732200086D220008852200080123FB73F9
:1022700030E07B68DB6A03F08073002B25D00123FC
:10228000FB7322E07B68DB6AB3F1C07F1FD10123BF
:10229000FB731CE0BB68022B03D9BB68032B03D084
:1022A00018E00123FB7315E07B68DB6A03F08073A1
:1022B000002B0ED00123FB730BE000BF0AE000BF30
:1022C00008E000BF06E000BF04E000BF02E000BF7E
:1022D00000E000BFFB7B18461437BD465DF8047B69
:1022E000704700BF80B489B000AF786039600023C8
:1022F0007B6100233B610023BB610023FB6159E14B
:102300000122FB6902FA03F37B613B681B687A696F
:1023100013403B613A697B699A4240F048813B68CF
:102320005B6803F00303012B05D03B685B6803F097
:102330000303022B30D17B689B68BB61FB695B00A8
:10234000032202FA03F3DB43BA691340BB613B6823
:10235000DA68FB695B0002FA03F3BA691343BB61F5
:102360007B68BA699A607B685B68BB610122FB6924
:1023700002FA03F3DB43BA691340BB613B685B6855
:102380001B0903F00102FB6902FA03F3BA69134364
:10239000BB617B68BA695A603B685B6803F0030302
:1023A000032B17D07B68DB68BB61FB695B000322F2
:1023B00002FA03F3DB43BA691340BB613B689A68D6
:1023C000FB695B0002FA03F3BA691343BB617B68E4
:1023D000BA69DA603B685B6803F00303022B23D120
:1023E000FB69DA087B68083253F82230BB61FB696D
:1023F00003F007039B000F2202FA03F3DB43BA69E1
:102400001340BB613B681A69FB6903F007039B003B
:1024100002FA03F3BA691343BB61FB69DA087B680C
:102420000832B96943F822107B681B68BB61FB69FD
:102430005B00032202FA03F3DB43BA691340BB617A
:102440003B685B6803F00302FB695B0002FA03F37D
:10245000BA691343BB617B68BA691A603B685B6801
:1024600003F44033002B00F0A2800023FB60574BA5
:102470005B6C564A43F480435364544B5B6C03F4E7
:102480008043FB60FB68524AFB699B08023352F8A9
:102490002330BB61FB6903F003039B000F2202FAA8
:1024A00003F3DB43BA691340BB617B68494A93423B
:1024B00019D07B68484A934213D07B68474A9342BD
:1024C0000DD07B68464A934207D07B68454A9342C9
:1024D00001D1042308E0072306E0032304E00223DC
:1024E00002E0012300E00023FA6902F003029200F7
:1024F0009340BA691343BB613549FB699B080233BA
:10250000BA6941F82320384B9B68BB613B69DB43C8
:10251000BA691340BB613B685B6803F48013002B0E
:1025200003D0BA693B691343BB612F4ABB6993600F
:102530002D4BDB68BB613B69DB43BA691340BB6170
:102540003B685B6803F40013002B03D0BA693B6956
:102550001343BB61244ABB69D360234B5B68BB61F7
:102560003B69DB43BA691340BB613B685B6803F4BA
:102570000033002B03D0BA693B691343BB611A4A8D
:10258000BB695360184B1B68BB613B69DB43BA698D
:102590001340BB613B685B6803F48033002B03D0BE
:1025A000BA693B691343BB610F4ABB691360FB699E
:1025B0000133FB61FB690F2B7FF6A2AE00BF00BFAA
:1025C0002437BD465DF8047B704700BF00380240E9
:1025D00000380140000002400004024000080240B0
:1025E000000C024000100240003C014080B483B067
:1025F00000AF78600B467B8013467B707B78002BA6
:1026000003D07A887B689A6103E07B881A047B6830
:102610009A6100BF0C37BD465DF8047B704700002F
:1026200080B586B000AF78607B68002B01D10123B4
:1026300067E27B681B6803F00103002B75D0884BB1
:102640009B6803F00C03042B0CD0854B9B6803F0B4
:102650000C03082B12D1824B5B6803F48003B3F5A3
:10266000800F0BD17E4B1B6803F40033002B5BD033
:102670007B685B68002B57D1012342E27B685B6873
:10268000B3F5803F06D1764B1B68754A43F480331F
:1026900013601DE07B685B68B3F5A02F0CD1704B15
:1026A0001B686F4A43F4802313606D4B1B686C4AB0
:1026B00043F4803313600BE0694B1B68684A23F4D2
:1026C00080331360664B1B68654A23F480231360D4
:1026D0007B685B68002B13D0FFF7D8F9386108E0FE
:1026E000FFF7D4F902463B69D31A642B01D90323BF
:1026F00007E25B4B1B6803F40033002BF0D014E0BF
:10270000FFF7C4F9386108E0FFF7C0F902463B69FA
:10271000D31A642B01D90323F3E1514B1B6803F453
:102720000033002BF0D100E000BF7B681B6803F092
:102730000203002B63D04A4B9B6803F00C03002B71
:102740000BD0474B9B6803F00C03082B1CD1444B68
:102750005B6803F48003002B16D1414B1B6803F028
:102760000203002B05D07B68DB68012B01D001231D
:10277000C7E13B4B1B6823F0F8027B681B69DB0059
:10278000374913430B603AE07B68DB68002B20D0AD
:10279000344B01221A60FFF779F9386108E0FFF73E
:1027A00075F902463B69D31A022B01D90323A8E12C
:1027B0002B4B1B6803F00203002BF0D0284B1B6847
:1027C00023F0F8027B681B69DB00254913430B608B
:1027D00015E0244B00221A60FFF758F9386108E031
:1027E000FFF754F902463B69D31A022B01D90323A0
:1027F00087E11B4B1B6803F00203002BF0D17B68C1
:102800001B6803F00803002B36D07B685B69002B44
:1028100016D0154B01221A60FFF738F9386108E02D
:10282000FFF734F902463B69D31A022B01D903237F
:1028300067E10B4B5B6F03F00203002BF0D01BE052
:10284000094B00221A60FFF721F938610EE0FFF70B
:102850001DF902463B69D31A022B07D9032350E125
:102860000038024000004742800E4742884B5B6FB1
:1028700003F00203002BEAD17B681B6803F004031A
:10288000002B00F097800023FB75814B1B6C03F03D
:102890008053002B0FD10023BB607D4B1B6C7C4A07
:1028A00043F0805313647A4B1B6C03F08053BB607E
:1028B000BB680123FB75774B1B6803F48073002B07
:1028C00018D1744B1B68734A43F480731360FFF78D
:1028D000DDF8386108E0FFF7D9F802463B69D31A02
:1028E000022B01D903230CE16A4B1B6803F48073AC
:1028F000002BF0D07B689B68012B06D1644B1B6FCB
:10290000634A43F0010313671CE07B689B68052B57
:102910000CD15F4B1B6F5E4A43F0040313675C4BA3
:102920001B6F5B4A43F0010313670BE0584B1B6FAF
:10293000574A23F001031367554B1B6F544A23F08A
:10294000040313677B689B68002B15D0FFF79EF884
:1029500038610AE0FFF79AF802463B69D31A41F260
:102960008832934201D90323CBE0494B1B6F03F01C
:102970000203002BEED014E0FFF788F838610AE07C
:10298000FFF784F802463B69D31A41F2883293423A
:1029900001D90323B5E03E4B1B6F03F00203002B6C
:1029A000EED1FB7D012B05D1394B1B6C384A23F04E
:1029B000805313647B689B69002B00F0A180344B2B
:1029C0009B6803F00C03082B5CD07B689B69022B8F
:1029D00041D1314B00221A60FFF758F8386108E006
:1029E000FFF754F802463B69D31A022B01D903239F
:1029F00087E0274B1B6803F00073002BF0D17B6846
:102A0000DA697B681B6A1A437B685B6A9B011A431D
:102A10007B689B6A5B08013B1B041A437B68DB6A8B
:102A20001B061B4913434B601B4B01221A60FFF727
:102A30002DF8386108E0FFF729F802463B69D31A00
:102A4000022B01D903235CE0114B1B6803F00073D8
:102A5000002BF0D054E0104B00221A60FFF716F85C
:102A6000386108E0FFF712F802463B69D31A022BDF
:102A700001D9032345E0064B1B6803F00073002BCC
:102A8000F0D13DE07B689B69012B07D1012338E041
:102A90000038024000700040600047421B4B5B68FA
:102AA000FB607B689B69012B28D0FB6803F48002E4
:102AB0007B68DB699A4221D1FB6803F03F027B68A7
:102AC0001B6A9A421AD1FA6847F6C07313407A68B3
:102AD000526A9201934211D1FB6803F440327B6841
:102AE0009B6A5B08013B1B049A4207D1FB6803F019
:102AF00070627B68DB6A1B069A4201D0012300E00A
:102B0000002318461837BD4680BD00BF003802407C
:102B100080B584B000AF786039607B68002B01D14C
:102B20000123CCE0684B1B6803F007033A689A4224
:102B30000CD9654B3A68D2B21A70634B1B6803F02C
:102B400007033A689A4201D00123B8E07B681B680A
:102B500003F00203002B20D07B681B6803F0040302
:102B6000002B05D0594B9B68584A43F4E0539360BF
:102B70007B681B6803F00803002B05D0534B9B6850
:102B8000524A43F460439360504B9B6823F0F00239
:102B90007B689B684D4913438B607B681B6803F01F
:102BA0000103002B44D07B685B68012B07D1474BA6
:102BB0001B6803F40033002B19D101237FE07B68ED
:102BC0005B68022B03D07B685B68032B07D13F4B0C
:102BD0001B6803F00073002B09D101236FE03B4B0E
:102BE0001B6803F00203002B01D1012367E0374B80
:102BF0009B6823F003027B685B68344913438B6056
:102C0000FEF744FFF8600AE0FEF740FF0246FB686B
:102C1000D31A41F28832934201D903234FE02B4B60
:102C20009B6803F00C027B685B689B009A42EBD1C7
:102C3000254B1B6803F007033A689A420CD2224BDB
:102C40003A68D2B21A70204B1B6803F007033A6847
:102C50009A4201D0012332E07B681B6803F0040331
:102C6000002B08D0194B9B6823F4E0527B68DB688B
:102C7000164913438B607B681B6803F00803002B25
:102C800009D0124B9B6823F460427B681B69DB0010
:102C90000E4913438B6000F021F802460B4B9B68F2
:102CA0001B0903F00F030A49CB5C22FA03F3094A1C
:102CB0001360094B1B681846FEF7A4FE0023184654
:102CC0001037BD4680BD00BF003C024000380240C6
:102CD000A87D0008080000200C0000202DE9B04F5E
:102CE00090B000AF00237B630023FB6300233B63B2
:102CF0000023BB63594B9B6803F00C03082B0DD0DA
:102D0000082B00F2A180002B02D0042B03D09BE003
:102D1000534BBB639BE0534BBB6398E04F4B5B68EB
:102D200003F03F037B634D4B5B6803F48003002B90
:102D300028D04A4B5B689B0900223B627A623B6A5F
:102D4000C3F308000021474B03FB01F2002300FB03
:102D500003F31344434AA0FB0212FA620A46BA6222
:102D6000FA6A1344FB627B6B0022BB61FA61D7E90C
:102D70000623D7E90A01FDF78BFA02460B461346F4
:102D8000FB6353E0354B5B689B0900223B617A6132
:102D90003B69C3F3080A4FF0000B52465B464FF005
:102DA00000004FF00001590141EAD2615001024692
:102DB0000B46B2EB0A0863EB0B094FF000024FF031
:102DC00000034FEA891343EA98634FEA8812B2EB93
:102DD000080463EB09054FF000024FF00003EB001D
:102DE00043EA5473E20014461D4614EB0A033B60A9
:102DF00045EB0B037B604FF000024FF00003D7E977
:102E0000004529468B02214643EA915321468A0216
:102E1000104619467B6B0022BB60FA60D7E902239B
:102E2000FDF736FA02460B461346FB630B4B5B6815
:102E30001B0C03F0030301335B003B63FA6B3B6B3A
:102E4000B2FBF3F3BB6302E0054BBB6300BFBB6B9C
:102E500018464037BD46BDE8B08F00BF003802407D
:102E60000024F40040787D0180B582B000AF786026
:102E70007B68002B01D101237BE07B685B6A002B20
:102E800008D17B685B68B3F5827F09D07B6800223C
:102E9000DA6105E07B6800221A617B6800225A61D2
:102EA0007B6800229A627B6893F85130DBB2002B7A
:102EB00006D17B68002283F850207868FEF712FC68
:102EC0007B68022283F851207B681B681A687B6844
:102ED0001B6822F040021A607B685B6803F4827210
:102EE0007B689B6803F404431A437B68DB6803F444
:102EF00000631A437B681B6903F002031A437B6873
:102F00005B6903F001031A437B689B6903F4007358
:102F10001A437B68DB6903F038031A437B681B6A3A
:102F200003F0800342EA03017B689B6A03F40052CA
:102F30007B681B680A431A607B689B691B0C03F063
:102F400004017B685B6A03F010027B681B680A431C
:102F50005A607B681B68DA697B681B6822F4006230
:102F6000DA617B6800225A657B68012283F8512070
:102F7000002318460837BD4680BD80B588B000AF35
:102F8000F860B9603B601346FB80FEF77FFDF86197
:102F9000FB887B83FB6893F85130DBB2012B01D0B7
:102FA00002232AE1BB68002B02D0FB88002B01D151
:102FB000012322E1FB6893F85030012B01D1022359
:102FC0001BE1FB68012283F85020FB68032283F891
:102FD0005120FB6800225A65FB68BA681A63FB68D7
:102FE000FA889A86FB68FA88DA86FB6800229A6378
:102FF000FB6800229A87FB680022DA87FB680022C0
:103000005A64FB6800221A64FB689B68B3F5004FA2
:103010000FD1FB681B681A68FB681B6822F040022E
:103020001A60FB681B681A68FB681B6842F48042E0
:103030001A60FB681B681B6803F04003402B07D035
:10304000FB681B681A68FB681B6842F040021A6044
:10305000FB68DB68B3F5006F52D1FB685B68002B3F
:1030600002D07B8B012B45D1FB681B6B1A88FB6858
:103070001B68DA60FB681B6B9A1CFB681A63FB68B1
:10308000DB8E9BB2013B9AB2FB68DA8632E0FB68CA
:103090001B689B6803F00203022B12D1FB681B6BB9
:1030A0001A88FB681B68DA60FB681B6B9A1CFB685C
:1030B0001A63FB68DB8E9BB2013B9AB2FB68DA862F
:1030C00018E0FEF7E3FC0246FB69D31A3A689A421D
:1030D00003D83B68B3F1FF3F02D13B68002B09D115
:1030E000FB68012283F85120FB68002283F85020FE
:1030F000032382E0FB68DB8E9BB2002BC7D153E039
:10310000FB685B68002B02D07B8B012B47D1FB68EF
:103110001A6BFB681B680C3312781A70FB681B6B08
:103120005A1CFB681A63FB68DB8E9BB2013B9AB2A8
:10313000FB68DA8633E0FB681B689B6803F00203D8
:10314000022B13D1FB681A6BFB681B680C331278D7
:103150001A70FB681B6B5A1CFB681A63FB68DB8EDA
:103160009BB2013B9AB2FB68DA8618E0FEF78EFC50
:103170000246FB69D31A3A689A4203D83B68B3F116
:10318000FF3F02D13B68002B09D1FB68012283F885
:103190005120FB68002283F8502003232DE0FB68B8
:1031A000DB8E9BB2002BC6D1FA693968F86800F053
:1031B000BFF80346002B02D0FB6820225A65FB684B
:1031C0009B68002B0AD100237B61FB681B68DB68CE
:1031D0007B61FB681B689B687B617B69FB680122E4
:1031E00083F85120FB68002283F85020FB685B6D58
:1031F000002B01D0012300E0002318462037BD46F4
:1032000080BD80B483B000AF78607B6893F85130A4
:10321000DBB218460C37BD465DF8047B70470000F2
:1032200080B588B000AFF860B9603B601346FB71B1
:10323000FEF72CFC0246BB6A9B1A3A681344FB61FA
:10324000FEF724FCB861394B1B685B011B0DFA6962
:1032500002FB03F37B6155E03B68B3F1FF3F51D0C4
:10326000FEF714FC0246BB69D31AFA699A4202D9E6
:10327000FB69002B3DD1FB681B685A68FB681B6823
:1032800022F0E0025A60FB685B68B3F5827F11D1DF
:10329000FB689B68B3F5004F04D0FB689B68B3F5EF
:1032A000806F07D1FB681B681A68FB681B6822F0F7
:1032B00040021A60FB689B6AB3F5005F0FD1FB68A0
:1032C0001B681A68FB681B6822F400521A60FB68CE
:1032D0001B681A68FB681B6842F400521A60FB689E
:1032E000012283F85120FB68002283F85020032339
:1032F00018E07B69002B02D10023FB6102E07B69AF
:10330000013B7B61FB681B689A68BB681340BA6825
:103310009A420CBF01230023DBB21A46FB799A4282
:103320009AD1002318462037BD4680BD08000020F2
:1033300080B588B002AFF860B9607A607B680093AE
:10334000BB6801220221F868FFF76AFF0346002BE1
:1033500007D0FB685B6D43F02002FB685A650323CE
:1033600032E01B4B1B681B4AA2FB03235B0D4FF48F
:103370007A7202FB03F37B61FB685B68B3F5827FC3
:1033800012D17B680093BB6800228021F868FFF7A8
:1033900047FF0346002B16D0FB685B6D43F020020D
:1033A000FB685A6503230FE07B69002B0AD07B6919
:1033B000013B7B61FB681B689B6803F08003802BEB
:1033C000F2D000E000BF002318461837BD4680BD8C
:1033D00008000020819F5E1680B500AF04490548B3
:1033E00003F024F903461A46034B1A7000BF80BD50
:1033F00068060020140000206406002080B400AF9E
:1034000000231846BD465DF8047B704780B485B044
:1034100000AF0346FB7100BF174B1B689B6803F0AE
:103420008003802BF8D00023BB60134B1B68DB6844
:10343000BB60114B1B689B68BB60BB680E4B1B6875
:10344000DB68FB60FB680C4B1B680C33FA791A7065
:1034500000BF094B1B689B6803F00103012BF8D1E7
:10346000054B1B680C331B78DBB218461437BD467E
:103470005DF8047B704700BFEC00002080B584B08D
:1034800000AF03463960FB7101224FF480512E4892
:10349000FFF7ACF8FF20FFF7B9FF00224FF480518F
:1034A0002948FFF7A3F80023BB6002E0BB680133A3
:1034B000BB60BB68632BF9DDFF20FFF7A7FFFB793B
:1034C00043F04003DBB21846FFF7A0FF3B681B0E3A
:1034D000DBB21846FFF79AFF3B681B0CDBB21846BD
:1034E000FFF794FF3B681B0ADBB21846FFF78EFF1D
:1034F0003B68DBB21846FFF789FF0123BB73FB79FA
:10350000002B01D19523BB73FB79082B01D18723B5
:10351000BB73BB7B1846FFF779FF0A23FB73FF20C1
:10352000FFF774FF03467B7397F90D30002B05DA24
:10353000FB7B013BFB73FB7B002BF0D17B7B1846B5
:103540001037BD4680BD00BF0004024080B584B086
:1035500000AF0346FB714FF49670FEF7A3FA012209
:103560004FF480514148FFF741F80023BB7305E059
:10357000FF20FFF74BFFBB7B0133BB73BB7B1D2BD6
:10358000F6D90023BB730EE000210020FFF776FF81
:103590000346FB73FB7B012B09D00520FEF782FA63
:1035A000BB7B0133BB73BB7B952BEDD900E000BF28
:1035B000FB7B012B01D0012353E04FF4D571082090
:1035C000FFF75CFF0346FB73FB7B012B2AD1002333
:1035D000BB7305E0FF20FFF719FFBB7B0133BB7313
:1035E000BB7B032BF6D940F6B833BB8100213720D3
:1035F000FFF744FF4FF080412920FFF73FFF0346CC
:10360000FB730520FEF74EFAFB7B002B05D0BB8930
:10361000013BBB81BB89002BE8D1BB89002B1FD1AB
:1036200001231EE040F6B8337B8100213720FFF7ED
:1036300025FF00212920FFF721FF0346FB7305200A
:10364000FEF730FAFB7B002B05D07B89013B7B81A9
:103650007B89002BE9D17B89002B01D1012300E07C
:10366000002318461037BD4680BD00BF000402404D
:1036700080B483B000AF0346FB71002318460C37BB
:10368000BD465DF8047B704780B586B000AFB96079
:103690007A603B600346FB7356E079681120FFF7C0
:1036A000EDFE0346002B01D001235AE04FF6FF73D5
:1036B000FB8200BFFF20FFF7A9FE0346FE2B05D0CB
:1036C000FB8A013BFB82FB8A002BF3D1FB8A002B98
:1036D00001D1012345E000233B6121E000BF234BE2
:1036E0001B689B6803F00203002BF8D01F4B1B687C
:1036F0000C33FF221A7000BF1C4B1B689B6803F041
:103700000103002BF8D0194B1B6803F10C023B6935
:10371000B9680B441278D2B21A703B6901333B612D
:103720003B69B3F5007FD9DBFF20FFF76FFEFF2079
:10373000FFF76CFE3B68013B3B607B6801337B60BD
:10374000BB6803F50073BB603B68002BA5D1012269
:103750004FF480510648FEF749FFFF20FFF756FE61
:10376000002318461837BD4680BD00BFEC0000207E
:103770000004024080B584B000AF0346FB71FB79C2
:10378000084A9B0013445B685B68FA7905490A4460
:10379000127A104698470346FB73FB7B1846103796
:1037A000BD4680BD9408002080B584B000AF0346BC
:1037B000FB710023FB73FB790E4AD35C002B14D101
:1037C000FB790C4A9B0013445B681B68FA79094932
:1037D0000A44127A104698470346FB73FB7B002B82
:1037E00003D1FB79034A0121D154FB7B18461037E2
:1037F000BD4680BD9408002090B587B000AFB96089
:103800007A603B600346FB73FB7B0A4A9B001344D0
:103810005B689C68FB7B074A1344187A3B687A68AC
:10382000B968A0470346FB75FB7D18461C37BD46AB
:1038300090BD00BF9408002090B587B000AFB9607C
:103840007A603B600346FB73FB7B0A4A9B00134490
:103850005B68DC68FB7B074A1344187A3B687A682C
:10386000B968A0470346FB75FB7D18461C37BD466B
:1038700090BD00BF9408002080B584B000AF03461F
:103880003A60FB710B46BB71FB79094A9B001344FC
:103890005B681B69FA7906490A44107AB9793A6873
:1038A00098470346FB73FB7B18461037BD4680BD27
:1038B0009408002080B485B000AF78607B68013345
:1038C0001B78FB81B7F90E301B021AB27B681B789C
:1038D0001BB213431BB2FB81FB8918461437BD464C
:1038E0005DF8047B704780B485B000AF78607B687A
:1038F00003331B78FB60FB681B027A680232127884
:103900001343FB60FB681B027A6801321278134391
:10391000FB60FB681B027A6812781343FB60FB684C
:1039200018461437BD465DF8047B704780B483B0F9
:1039300000AF78600B467B807B685A1C7A607A887F
:10394000D2B21A707B881B0A7B807B685A1C7A6013
:103950007A88D2B21A7000BF0C37BD465DF8047B7E
:10396000704780B483B000AF786039607B685A1CC0
:103970007A603A68D2B21A703B681B0A3B607B6877
:103980005A1C7A603A68D2B21A703B681B0A3B60D4
:103990007B685A1C7A603A68D2B21A703B681B0A7C
:1039A0003B607B685A1C7A603A68D2B21A7000BFDA
:1039B0000C37BD465DF8047B704780B487B000AF1C
:1039C000F860B9607A60FB687B61BB683B617B68CB
:1039D000002B0DD03A69531C3B617B69591C7961FE
:1039E00012781A707B68013B7B607B68002BF1D1F9
:1039F00000BF1C37BD465DF8047B704780B487B0BC
:103A000000AFF860B9607A60FB687B617B695A1C23
:103A10007A61BA68D2B21A707B68013B7B607B68BE
:103A2000002BF3D100BF00BF1C37BD465DF8047BFF
:103A3000704780B489B000AFF860B9607A60FB6805
:103A4000FB61BB68BB6100237B61FB695A1CFA61A7
:103A50001B781946BB695A1CBA611B78CB1A7B616B
:103A60007B68013B7B607B68002B02D07B69002B6D
:103A7000EBD07B6918462437BD465DF8047B704760
:103A800080B483B000AF7860396002E07B680133B6
:103A90007B607B681B78002B05D07B681B781A46FF
:103AA0003B689342F2D17B681B7818460C37BD46C1
:103AB0005DF8047B7047000080B485B000AF78608B
:103AC00039600023BB60BB68FB6029E0274AFB68C4
:103AD0001B0113441B68002B1DD0244AFB681B01EB
:103AE00013441A687B681B689A4216D11F4AFB6808
:103AF0001B01134404331A687B689B689A420CD1FB
:103B00001A4AFB681B01134408331A687B685B6917
:103B10009A4202D107E00123BB60FB680133FB60DE
:103B2000FB68012BD2D9FB68022B09D1BB68002BA3
:103B300002D13B68022B01D1002310E012230EE0DA
:103B40003B68002B08D1094AFB681B0113440C3366
:103B50001B88B3F5807F01D1102300E000231846B5
:103B60001437BD465DF8047B704700BF7406002023
:103B700080B483B000AF00237B6002E07B68013338
:103B80007B607B68012B06D8094A7B681B011344C4
:103B90001B68002BF2D17B68022B14BF012300238A
:103BA000DBB218460C37BD465DF8047B704700BF9A
:103BB0007406002080B485B000AF786039600023BF
:103BC000FB601FE0414AFB681B0113441A687B68D5
:103BD0001B689A4213D13D4AFB681B01134404330E
:103BE0001A687B689B689A4209D1384AFB681B01B6
:103BF000134408331A687B685B699A4206D0FB68F5
:103C00000133FB60FB68012BDCD900E000BFFB68DF
:103C1000022B32D10023FB6002E0FB680133FB6022
:103C2000FB68012B06D8294AFB681B0113441B685B
:103C3000002BF2D1FB68022B01D1002340E07B680E
:103C40001A682249FB681B010B441A607B689A685A
:103C50001E49FB681B010B4404331A607B685A69D8
:103C60001A49FB681B010B4408331A60174AFB68AA
:103C70001B0113440C3300221A803B68002B09D02F
:103C8000124AFB681B0113440C331B88002B01D024
:103C9000002315E03B68002B08D10C4AFB681B0190
:103CA00013440C331B8801339AB201E04FF4807245
:103CB0000649FB681B010B440C331A80FB68013377
:103CC00018461437BD465DF8047B70477406002023
:103CD00080B485B000AF78607B68013B7B607B6817
:103CE000012B25D8174A7B681B0113440C331B8812
:103CF000FB81FB89B3F5807F01D10023FB81FB8928
:103D0000002B02D0FB89013BFB810E4A7B681B0123
:103D100013440C33FA891A80FB89002B05D1094A18
:103D20007B681B01134400221A6000237B7301E0AF
:103D300002237B737B7B18461437BD465DF8047BFA
:103D4000704700BF7406002080B485B000AF786073
:103D50000023FB6010E00D4AFB681B0113441B6845
:103D60007A689A4205D1094AFB681B011344002274
:103D70001A60FB680133FB60FB68012BEBD900BFC5
:103D800000BF1437BD465DF8047B70477406002001
:103D900080B586B000AF78600023FB737B68DB786A
:103DA000002B34D07B681B6B7B617B6858787B6809
:103DB00003F1340101237A69FFF73EFD0346002B2E
:103DC00002D00123FB7322E07B680022DA707B685B
:103DD0005B6A7A69D21A7B68DB699A4217D27B6880
:103DE0009B783B6110E07B68DB697A6913447B61F7
:103DF0007B6858787B6803F1340101237A69FFF707
:103E00001BFD3B69013B3B613B69012BEBD8FB7B15
:103E100018461837BD4680BD80B584B000AF7860C5
:103E200039600023FB737B681B6B3A689A421BD096
:103E30007868FFF7ADFF0346FB73FB7B002B13D1C4
:103E40007B6858787B6803F1340101233A68FFF7F7
:103E5000D3FC0346002B04D04FF0FF333B6001231B
:103E6000FB737B683A681A63FB7B18461037BD46C4
:103E700080BD000080B584B000AF78607868FFF73F
:103E800087FF0346FB73FB7B002B58D17B681B78B5
:103E9000032B48D17B681B79012B44D17B683433D9
:103EA0004FF4007200211846FFF7A8FD7B683433F9
:103EB00003F5FF734AF655211846FFF737FD7B6877
:103EC000343321491846FFF74CFD7B68343303F542
:103ED000F2731E491846FFF744FD7B68343303F53F
:103EE000F4727B685B6919461046FFF73AFD7B6800
:103EF000343303F5F6727B681B6919461046FFF7E9
:103F000030FD7B681B6A5A1C7B681A637B68587893
:103F10007B6803F134017B681A6B0123FFF78CFC8B
:103F20007B6800221A717B685B78002200211846AA
:103F3000FFF7A2FC0346002B01D00123FB73FB7BA0
:103F400018461037BD4680BD5252614172724161C0
:103F500080B483B000AF786039603B68023B3B605F
:103F60007B689B69023B3A689A4201D3002308E0D0
:103F70007B685B891A463B6803FB02F27B68DB6A5D
:103F8000134418460C37BD465DF8047B704780B576
:103F900086B000AF786039607B681B683B613B6826
:103FA000012B04D93B699B693A689A4202D30123E9
:103FB0007B618EE04FF0FF337B613B691B78032B05
:103FC00061D0032B7BDC012B02D0022B41D076E0A9
:103FD0003B68FB60FB685B08FA681344FB603B6965
:103FE0005A6AFB685B0A134419463869FFF714FFE5
:103FF0000346002B66D1FB685A1CFA60C3F3080322
:104000003A69134493F83430BB603B695A6AFB68E1
:104010005B0A134419463869FFF7FEFE0346002B7E
:1040200052D1FB68C3F308033A69134493F8343060
:104030001B02BA681343BB603B6803F00103002B0B
:1040400002D0BB681B0902E0BB68C3F30B037B61B2
:104050003FE03B695A6A3B681B0A134419463869BA
:10406000FFF7DAFE0346002B30D13B6903F134023F
:104070003B685B0003F4FF7313441846FFF71AFC18
:1040800003467B6125E03B695A6A3B68DB091344C0
:1040900019463869FFF7C0FE0346002B18D13B696B
:1040A00003F134023B689B0003F4FE73134418468B
:1040B000FFF719FC034623F070437B6109E00123FD
:1040C0007B6106E000BF04E000BF02E000BF00E04B
:1040D00000BF7B6918461837BD4680BD90B589B0D2
:1040E00000AFF860B9607A600223FB77BB68012BF0
:1040F00040F2D980FB689B69BA689A4280F0D3800D
:10410000FB681B78032B00F09680032B00F3CB8019
:10411000012B02D0022B6ED0C5E0BB68BB61BB692E
:104120005B08BA691344BB61FB685A6ABB695B0AE6
:1041300013441946F868FFF76FFE0346FB77FB7FD1
:10414000002B40F0A980FB6803F13402BB69591CC5
:10415000B961C3F3080313447B61BB6803F0010337
:10416000002B0DD07B691B785BB203F00F035AB2B2
:104170007B685BB21B015BB213435BB2DBB201E055
:104180007B68DBB27A691370FB680122DA70FB6826
:104190005A6ABB695B0A13441946F868FFF73CFE8C
:1041A0000346FB77FB7F002B78D1FB6803F13402D9
:1041B000BB69C3F3080313447B61BB6803F00103CD
:1041C000002B03D07B681B09DBB20EE07B691B78F8
:1041D0005BB223F00F035AB27B681B0A5BB203F099
:1041E0000F035BB213435BB2DBB27A691370FB68F7
:1041F0000122DA7057E0FB685A6ABB681B0A134455
:104200001946F868FFF708FE0346FB77FB7F002B93
:1042100046D1FB6803F13402BB685B0003F4FF7313
:1042200013447A6892B211461846FFF77FFBFB6889
:104230000122DA7037E0FB685A6ABB68DB09134475
:104240001946F868FFF7E8FD0346FB77FB7F002B74
:1042500028D17B6823F07044FB6803F13402BB680B
:104260009B0003F4FE7313441846FFF73CFB034620
:1042700003F0704323437B60FB6803F13402BB68A7
:104280009B0003F4FE73134479681846FFF769FB3B
:10429000FB680122DA7006E000BF04E000BF02E024
:1042A00000BF00E000BFFB7F18462437BD4690BD2D
:1042B00080B588B000AFF860B9607A600023FB7702
:1042C000FB681B68BB61BB68012B04D9BB699B6998
:1042D000BA689A4201D302234BE07B68002B0CD0D2
:1042E0004FF0FF327968B869FFF7F8FE0346FB77B5
:1042F000FB7F002B01D0FB7F3BE0B968F868FFF73C
:1043000046FE78617B69002B31D07B69012B01D19E
:1043100002232EE07B69B3F1FF3F01D1012328E0A6
:104320000022B968B869FFF7D9FE0346FB77FB7F27
:10433000002B01D0FB7F1CE0BB695A69BB699B69FC
:10434000023B9A420BD2BB695B695A1CBB695A613A
:10435000BB691B7943F00103DAB2BB691A717B694F
:10436000BB60BB699B69BA689A42C6D300E000BFD4
:10437000002318462037BD4680BD80B588B000AF09
:10438000786039607B681B683B613B68002B0DD10E
:104390003B691B69BB61BB69002B04D03B699B690E
:1043A000BA699A421BD30123BB6118E03968786867
:1043B000FFF7EDFDF860FB68012B01D8012370E0E9
:1043C000FB68B3F1FF3F01D1FB686AE03B699B6981
:1043D000FA689A4201D2FB6863E03B68BB61BB6943
:1043E000FB61FB690133FB613B699B69FA699A4296
:1043F00007D30223FB61FA69BB699A4201D9002302
:104400004FE0F9697868FFF7C2FDF860FB68002BA0
:104410000ED0FB68012B03D0FB68B3F1FF3F01D145
:10442000FB683EE0FA69BB699A42DAD1002338E0C2
:1044300000BF4FF0FF32F9693869FFF74FFE0346BE
:10444000FB75FB7D002B09D13B68002B06D0FA6978
:1044500039683869FFF742FE0346FB75FB7D002B88
:1044600016D13B69FA691A613B695A693B699B69D4
:10447000023B9A4204D83B695B695A1E3B695A6108
:104480003B691B7943F00103DAB23B691A7107E01B
:10449000FB7D012B02D14FF0FF3300E00123FB61D4
:1044A000FB6918462037BD4680BD80B487B000AF99
:1044B000786039607B681B68FB607B68DB6A04336B
:1044C0003B613B685B0AFA685289B3FBF2F37B619C
:1044D0003B691A1D3A611B68BB60BB68002B01D1A8
:1044E000002310E07A69BB689A4207D37A69BB68F7
:1044F000D31A7B613B6904333B61E9E700BF3B6949
:104500001A687B69134418461C37BD465DF8047B66
:10451000704780B586B000AF786039607B681B68F3
:104520003B613B68B3F5001F04D23B6803F01F03F7
:10453000002B01D0022363E07B683A685A617B68F4
:104540009B687B617B69002B06D13B691B78022B42
:1045500002D93B699B6A7B617B69002B0CD13B686C
:104560005B093A691289934201D3022348E03B690F
:104570009A6A7B68DA6129E03B695B895B02FB60D0
:1045800019E07B6879691846FFF701FD78617B695E
:10459000B3F1FF3F01D1012332E07B69012B04D944
:1045A0003B699B697A699A4201D3022328E03A6801
:1045B000FB68D31A3B603A68FB689A42E1D279699A
:1045C0003869FFF7C5FC02467B68DA617B687A6967
:1045D0009A617B68DB69002B01D1022310E07B68C4
:1045E000DA693B685B0A1A447B68DA613B6903F16C
:1045F00034023B68C3F308031A447B681A62002341
:1046000018461837BD4680BD80B586B000AF7860CB
:1046100039607B681B68FB607B685B692033BB602B
:104620007B68DB69002B03D0BB68B3F5001F01D3A7
:104630000423AAE0BB68C3F30803002B40F0988072
:104640007B68DB695A1C7B68DA617B689B69002B9D
:104650000BD1BB685B09FA6812899342C0F088806D
:104660007B680022DA6104238FE0BB685B0AFA688A
:104670005289013A1340002B7AD17A687B689B6992
:1046800019461046FFF783FC78617B69012B01D83E
:1046900002237AE07B69B3F1FF3F01D1012374E08B
:1046A000FB689B697A699A4258D33B68002B04D116
:1046B0007B680022DA61042367E07A687B689B6983
:1046C00019461046FFF759FE78617B69002B01D12E
:1046D00007235AE07B69012B01D1022355E07B6956
:1046E000B3F1FF3F01D101234FE0F868FFF750FB22
:1046F0000346002B01D0012347E0FB6834334FF41D
:10470000007200211846FFF779F900233B617969AF
:10471000F868FFF71DFC0246FB681A6312E0FB68AD
:104720000122DA70F868FFF733FB0346002B01D053
:1047300001232AE03B6901333B61FB681B6B5A1C78
:10474000FB681A63FB685B891A463B699342E6D3B0
:10475000FB681A6B3B69D21AFB681A637B687A693B
:104760009A617969F868FFF7F3FB02467B68DA61C2
:104770007B68BA685A61FB6803F13402BB68C3F313
:1047800008031A447B681A62002318461837BD468E
:1047900080BD80B586B000AF786039607B681B68EB
:1047A000FB6000217868FFF7B4FE0346FB75FB7DD4
:1047B000002B2BD100233B617B68DB691946F8682D
:1047C000FFF72AFB0346FB75FB7D002B1DD17B68A1
:1047D0001B6A1B78E52B04D07B681B6A1B78002BB7
:1047E00007D13B6901333B613A693B689A4202D188
:1047F0000CE000233B6101217868FFF705FF0346C9
:10480000FB75FB7D002BD7D000E000BFFB7D042BA8
:1048100001D10723FB75FB7D18461837BD4680BDC7
:1048200080B584B000AF786039603B681A331846B1
:10483000FFF740F80346FB607B681B78032B09D128
:104840003B6814331846FFF735F803461B04FA6833
:104850001343FB60FB6818461037BD4680BD80B52A
:1048600084B000AFF860B9607A60BB681A337A68C8
:1048700092B211461846FFF759F8FB681B78032BD4
:1048800009D1BB6803F114027B681B0C9BB219466B
:104890001046FFF74BF800BF1037BD4680BD000043
:1048A00090B587B000AF786039603B681A3318461E
:1048B000FFF700F80346002B01D0002359E03B68C6
:1048C0001B7803F03F035A1E13465B0013449B0002
:1048D00013447B610123FB8100233B6133E0274AC2
:1048E0003B6913441B781A463B6813441846FEF78D
:1048F000E1FF0346BB81FB89002B1AD07B69FE2BAD
:1049000012D8BB89184601F0DDFE03461C467B69C0
:104910005A1C7A615B007A6813441B88184601F0C0
:10492000D1FE03469C4201D0002322E0BB89FB81DB
:1049300006E0BB894FF6FF72934201D0002318E0D6
:104940003B6901333B613B690C2BC8D93B681B7841
:1049500003F04003002B0BD0FB89002B08D07B69B0
:104960005B007A6813441B88002B01D0002300E011
:10497000012318461C37BD4690BD00BF407E00088D
:1049800080B588B000AFF860B96011461A460B4692
:10499000FB711346BB71BB680D33BA791A70BB68E3
:1049A0000B330F221A70BB680C3300221A70BB68DD
:1049B0001A3300211846FEF7B9FFFB795A1E134639
:1049C0005B0013449B001344FB610023FB82002324
:1049D000BB61FB8A4FF6FF72934207D0FB695A1CFA
:1049E000FA615B00FA6813441B88FB82174ABB69B3
:1049F00013441B781A46BB681344FA8A11461846BA
:104A0000FEF794FFFB8A002B02D14FF6FF73FB8267
:104A1000BB690133BB61BB690C2BDAD9FB8A4FF64A
:104A2000FF72934206D0FB695B00FA6813441B884F
:104A3000002B03D1FB7943F04003FB71BB68FA798B
:104A40001A7000BF2037BD4680BD00BF407E000801
:104A500080B58CB000AFF860B9607A603B600B2223
:104A6000B968F868FEF7A9FF3B68052B2BD93B68AE
:104A7000FB6122E07B689A1C7A601B887B840023A0
:104A8000BB6217E0FB695A007B8C03F001031344FF
:104A9000FB617B8C5B087B84FB6903F48033002B18
:104AA00005D0FB6983F4883383F02103FB61BB6A83
:104AB0000133BB62BB6A0F2BE4D97B681B88002BD8
:104AC000D8D1FB693B600723BB623B68DBB203F0D4
:104AD0000F03DBB2303387F82F3097F82F30392BA4
:104AE00004D997F82F30073387F82F30BB6A5A1E46
:104AF000BA6230333B4497F82F2003F81C2C3B68F4
:104B00001B093B603B68002BDFD107F11402BB6A35
:104B100013447E221A7000237B6202E07B6A013319
:104B20007B627A6ABB6A9A4205D2FA687B6A13444E
:104B30001B78202BF2D1BB6A072B07D8BB6A5A1C03
:104B4000BA6230333B4413F81C1C00E020217B6A1E
:104B50005A1C7A62FA6813440A461A707B6A072B59
:104B6000E9D900BF00BF3037BD4680BD80B485B0F5
:104B700000AF78600023FB730B23BB60FB7BDAB2D2
:104B80005208DB011343DAB27B68591C79601B7849
:104B90001344FB73BB68013BBB60BB68002BEDD1CA
:104BA000FB7B18461437BD465DF8047B704780B523
:104BB00086B000AF78607B681B683B610021786835
:104BC000FFF7A7FC0346FB75FB7D002B01D0FB7DA7
:104BD000A9E0FF233B753B7D7B757B684FF0FF327F
:104BE0001A637B68DB6919463869FFF715F90346D4
:104BF000FB75FB7D002B40F090807B681B6A1B7867
:104C0000BB75BB7D002B02D10423FB758AE07B685A
:104C10001B6A0B331B7803F03F03FB737B68FA7B43
:104C20009A71BB7DE52B07D0FB7B03F00803002BBB
:104C300009D0FB7B0F2B06D0FF237B757B684FF0E1
:104C4000FF321A635EE0FB7B0F2B36D17B6893F853
:104C50002F3003F04003002B54D1BB7D03F0400301
:104C6000002B0DD07B681B6A5B7B3B75BB7D23F003
:104C70004003BB75BB7D7B757B685A697B681A6393
:104C8000BA7D7B7D9A4215D17B681B6A0D331B78F8
:104C90003A7D9A420ED13B69DA687B681B6A1946F5
:104CA0001046FFF7FDFD0346002B03D07B7D013B43
:104CB000DBB200E0FF237B7524E07B7D002B09D174
:104CC0007B681B6A1846FFF751FF03461A463B7D77
:104CD000934224D07B6893F82F3003F00103002B1C
:104CE0000AD17B68186A7B6824330B221946FEF7C9
:104CF000A0FE0346002B14D0FF237B757B684FF08A
:104D0000FF321A6300217868FFF77EFC0346FB75CB
:104D1000FB7D002B3FF465AF04E000BF02E000BF65
:104D200000E000BFFB7D18461837BD4680BD00007F
:104D300080B58CB000AF78607B681B68FB617B68D6
:104D400093F82F3003F0A003002B01D00623E0E0FE
:104D500000237B6202E07B6A01337B62FB69DA68D5
:104D60007B6A5B0013441B88002BF4D17B6803F142
:104D7000240107F10C030C221846FEF71EFEFB7DF2
:104D800003F00103002B32D07B68402283F82F20F0
:104D90000123BB6216E07B6803F12400FB69DA683B
:104DA00007F10C01BB6AFFF753FE7868FFF7FFFEBF
:104DB000034687F82F3097F82F30002B06D1BB6AB7
:104DC0000133BB62BB6A632BE5D900E000BFBB6A5D
:104DD000642B01D107239CE097F82F30042B02D0DD
:104DE00097F82F3095E0FA7D7B6883F82F20FB7DC4
:104DF00003F00203002B07D07B6A0C33474AA2FB67
:104E000003239B08013300E001233B62396A786881
:104E1000FFF7BFFC034687F82F3097F82F30002BA1
:104E200048D13B6A013B3B623B6A002B42D07B6826
:104E30005A693B6A5B01D31A19467868FFF769FB28
:104E4000034687F82F3097F82F30002B32D17B683C
:104E500024331846FFF78AFE0346FB767B68DB693E
:104E60001946F869FEF7D8FF034687F82F3097F800
:104E70002F30002B1DD1FB69D8687B68196A3B6A0B
:104E8000DAB2FB7EFFF77CFDFB690122DA700021BC
:104E90007868FFF7B9FB034687F82F3097F82F3073
:104EA000002B07D13B6A013B3B623B6A002BD5D10B
:104EB00000E000BF97F82F30002B28D17B68DB691A
:104EC0001946F869FEF7A8FF034687F82F3097F8D0
:104ED0002F30002B1BD17B681B6A20220021184633
:104EE000FEF78CFD7B68186A7B6824330B22194619
:104EF000FEF763FD7B6893F82F207B681B6A0C33F9
:104F000002F01802D2B21A70FB690122DA7097F827
:104F10002F3018463037BD4680BD00BF4FECC44E21
:104F200080B58AB000AF786039603B681B683B6130
:104F30007B681B68DB68FB6000237B617B69BB616E
:104F4000BB695A1CBA613A6913441B78BB84BB8C99
:104F50001F2B40D9BB8C2F2B06D0BB8C5C2B10D1C8
:104F600002E0BB690133BB613A69BB6913441B783A
:104F70002F2BF6D03A69BB6913441B785C2BF0D019
:104F80002AE07B69FE2B01D906237DE1BB8CDBB2D5
:104F9000BB84BB8C0121184601F058FB0346BB843F
:104FA000BB8C002B01D106236EE1BB8C7F2B09D873
:104FB000BB8C19468D48FEF763FD0346002B01D0DC
:104FC000062361E17B695A1C7A615B00FA6813442D
:104FD000BA8C1A80B4E700BF3A69BB691A443B68CF
:104FE0001A60BB8C1F2B01D8042300E0002387F834
:104FF000273011E07B6903F10043013B5B00FA6855
:1050000013441B88BB84BB8C202B02D0BB8C2E2B63
:1050100006D17B69013B7B617B69002BEAD100E013
:1050200000BF7B695B00FA68134400221A807B6929
:10503000002B01D1062327E17B6824330B2220219A
:105040001846FEF7DBFC0023BB6102E0BB690133BD
:10505000BB61BB695B00FA6813441B88202BF5D049
:10506000BB695B00FA6813441B882E2BEED0BB692A
:10507000002B09D097F8273043F0030387F8273037
:1050800002E07B69013B7B617B69002B09D07B6976
:1050900003F10043013B5B00FA6813441B882E2B8D
:1050A000EFD1002387F8263000233B620823FB6101
:1050B000BB695A1CBA615B00FA6813441B88BB8445
:1050C000BB8C002B00F09080BB8C202B06D0BB8CBF
:1050D0002E2B0AD1BA697B699A4206D097F82730FD
:1050E00043F0030387F827307DE03A6AFB699A4270
:1050F00003D2BA697B699A4223D1FB690B2B06D193
:1051000097F8273043F0030387F8273075E0BA6932
:105110007B699A4205D097F8273043F0030387F85C
:105120002730BA697B699A4266D87B69BB610823DC
:105130003B620B23FB6197F826309B0087F82630F3
:1051400051E0BB8C7F2B14D9BB8C0021184601F099
:105150007DFA0346BB84BB8C002B04D0BB8C803B08
:10516000234AD35CBB8497F8273043F0020387F8C7
:105170002730BB8C002B07D0BB8C19461D48FEF78F
:105180007FFC0346002B08D05F23BB8497F82730B1
:1051900043F0030387F827301BE0BB8C402B09D971
:1051A000BB8C5A2B06D897F8263043F0020387F8B9
:1051B00026300EE0BB8C602B0BD9BB8C7A2B08D829
:1051C00097F8263043F0010387F82630BB8C203B4C
:1051D000BB843B6A5A1C3A62BA8CD1B27A681344D7
:1051E0000A4683F8242063E700BF06E06C710008DC
:1051F000C07D00087871000800BF7B6893F82430F8
:10520000E52B03D17B68052283F82420FB69082B5A
:1052100004D197F826309B0087F8263097F826307F
:1052200003F00C030C2B05D097F8263003F0030392
:10523000032B05D197F8273043F0020387F8273076
:1052400097F8273003F00203002B17D197F8263088
:1052500003F00303012B05D197F8273043F0100327
:1052600087F8273097F8263003F00C03042B05D17C
:1052700097F8273043F0080387F827307B6897F8C2
:10528000272083F82F20002318462837BD4680BDED
:1052900080B586B000AF786039607B683B613B6960
:1052A0001B68FB6002E03B6801333B603B681B7896
:1052B0002F2BF8D03B681B785C2BF4D03B69002285
:1052C0009A603B681B781F2B0AD87B68802283F882
:1052D0002F2000217868FFF71CF90346FB7543E097
:1052E0003B4619467868FFF71BFE0346FB75FB7DBE
:1052F000002B34D17868FFF75AFC0346FB757B68B6
:1053000093F82F30FB72FB7D002B0AD0FB7D042B22
:1053100027D1FB7A03F00403002B22D10523FB7570
:105320001FE0FB7A03F00403002B1CD13B699B793F
:1053300003F01003002B02D10523FB7514E0FB687A
:1053400003F134027B685B69C3F308031344194615
:10535000F868FFF765FA02463B699A60C0E700BF4C
:1053600002E000BF00E000BFFB7D18461837BD46D5
:1053700080BD80B487B000AF78604FF0FF333B61F1
:105380007B681B68002B31D07B681B687B6102E067
:105390007B6901337B617B691B781F2B03D97B6998
:1053A0001B783A2BF4D17B691B783A2B1CD17B6894
:1053B0001B68FB60FB685A1CFA601B78303BBB60C3
:1053C000BB68092B0ED8FA687B699A420AD1BB6880
:1053D000002B07D1BB683B617B6901337B617B6834
:1053E0007A691A603B6902E000233B613B69184619
:1053F0001C37BD465DF8047B7047000080B582B065
:1054000000AF786039607B680022DA707B684FF00B
:10541000FF321A6339687868FEF7FEFC0346002BFA
:1054200001D0042338E07B68343303F5FF7318465A
:10543000FEF740FA03461A464AF655239A4201D02F
:10544000032329E07B6893F83430E92B09D07B688B
:1054500093F83430EB2B1ED17B6893F83630902BC9
:1054600019D17B68343336331846FEF73CFA0346CD
:1054700023F07F430A4A934201D100230CE07B686A
:10548000343352331846FEF72EFA0346054A934248
:1054900001D1002300E0022318460837BD4680BD35
:1054A000464154004641543380B596B000AFF86091
:1054B000B9601346FB71BB6800221A60F868FFF7F9
:1054C00058FFF863FB6B002B01DA0B2330E2A14A93
:1054D000FB6B52F82330BB63BB6B002B01D10C2359
:1054E00026E2BB68BA6B1A60FB7923F00103FB71FB
:1054F000BB6B1B78002B1AD0BB6B5B781846FEF792
:1055000039F9034687F8373097F8373003F001034D
:10551000002B0CD1FB79002B07D097F8373003F024
:105520000403002B01D00A2302E2002300E2BB6B3C
:1055300000221A70FB6BDAB2BB6B5A70BB6B5B78E4
:105540001846FEF731F9034687F8373097F83730B9
:1055500003F00103002B01D00323E9E1FB79002BC9
:1055600007D097F8373003F00403002B01D00A234B
:10557000DEE100233B65396DB86BFFF73FFF034663
:1055800087F8573097F85730022B49D100233B64F6
:105590001EE0BB6B03F134023B6C1B0103F5DF73B0
:1055A00013443B633B6B04331B78002B06D03B6BEF
:1055B00008331846FEF797F9024600E000223B6CDC
:1055C0009B0058333B4443F8442C3B6C01333B6411
:1055D0003B6C032BDDD900233B643B6C002B02D0DA
:1055E0003B6C013B3B643B6C9B0058333B4453F8A2
:1055F000443C3B653B6D002B05D0396DB86BFFF724
:10560000FDFE034600E0032387F8573097F8573034
:10561000012B05D93B6C01333B643B6C032BE2D976
:1056200097F85730042B01D1012381E197F85730C7
:10563000012B01D90D237BE1BB6B34330B331846AF
:10564000FEF738F90346B3F5007F01D00D236FE173
:10565000BB6B343316331846FEF72CF90346FB6454
:10566000FB6C002B06D1BB6B343324331846FEF79A
:105670003AF9F864BB6BFA6CDA61BB6B93F84420BF
:10568000BB6B9A70BB6B9B78012B05D0BB6B9B7877
:10569000022B01D00D234BE1BB6B9B781A46FB6CB0
:1056A00002FB03F3FB64BB6B93F841301A46BB6B00
:1056B0005A81BB6B5B89002B08D0BB6B5B891A4698
:1056C000BB6B5B89013B1340002B01D00D232FE105
:1056D000BB6B343311331846FEF7ECF803461A4619
:1056E000BB6B1A81BB6B1B8903F00F039BB2002BB2
:1056F00001D00D231CE1BB6B343313331846FEF786
:10570000D9F80346BB64BB6C002B06D1BB6B3433AA
:1057100020331846FEF7E7F8B864BB6B34330E331A
:105720001846FEF7C7F80346FB85FB8D002B01D119
:105730000D23FDE0FA8DFB6C1344BA6B128912093C
:1057400092B21344BB62BA6CBB6A9A4204D20D2374
:10575000EEE000BF6C060020BA6CBB6AD31ABA6BCD
:105760005289B3FBF2F37B627B6A002B01D10D23DC
:10577000DEE0032387F857307B6A4FF6F5729342D9
:1057800002D8022387F857307B6A40F6F5729342BD
:1057900002D8012387F857307B6A9A1CBB6B9A6149
:1057A000BB6B3A6D1A62FA8D3B6D1A44BB6B5A6241
:1057B0003A6DBB6A1A44BB6BDA6297F85730032B19
:1057C0001ED1BB6B34332A331846FEF773F80346F9
:1057D000002B01D00D23ABE0BB6B1B89002B01D04C
:1057E0000D23A5E0BB6B34332C331846FEF77BF852
:1057F0000246BB6B9A62BB6B9B699B007B641FE09C
:10580000BB6B1B89002B01D10D2391E0BB6B5A6A46
:10581000FB6C1A44BB6B9A6297F85730022B03D18A
:10582000BB6B9B695B000AE0BB6B9A6913465B002C
:1058300013445A08BB6B9B6903F0010313447B6458
:10584000BB6BDA697B6C03F2FF135B0A9A4201D2ED
:105850000D236DE0BB6B4FF0FF325A61BB6B5A6991
:10586000BB6B1A61BB6B80221A7197F85730032B00
:1058700049D1BB6B343330331846FEF71BF803466F
:10588000012B40D13B6D01331946B86BFEF7C4FACA
:105890000346002B37D1BB6B00221A71BB6B34332C
:1058A00003F5FF731846FEF705F803461A464AF655
:1058B00055239A4227D1BB6B34331846FEF713F8B1
:1058C00003461D4A93421ED1BB6B343303F5F2737A
:1058D0001846FEF708F80346184A934213D1BB6BEB
:1058E000343303F5F4731846FDF7FDFF0246BB6B36
:1058F0005A61BB6B343303F5F6731846FDF7F3FFBB
:105900000246BB6B1A61BB6B97F857201A700C4BA1
:105910001B8801339AB20A4B1A80094B1A88BB6B59
:10592000DA80BB6B074ADA60B86BFEF70DFA00232A
:1059300018465837BD4680BD52526141727241616E
:10594000700600209406002080B584B000AF786017
:1059500039600923FB737B68002B1CD07B681B68B4
:10596000002B18D07B681B681B78002B13D07B683A
:105970009A887B681B68DB889A420CD17B681B681D
:105980005B781846FDF7F6FE034603F00103002B93
:1059900001D10023FB73FB7B002B02D17B681B68CA
:1059A00000E000233A681360FB7B18461037BD46C1
:1059B00080BD000080B588B000AFF860B9601346C4
:1059C000FB71BB683B6107F110031846FFF7D1FC80
:1059D000F861FB69002B01DA0B232BE0174AFB6906
:1059E00052F82330BB61BB69002B05D0B869FEF7C4
:1059F000ABF9BB6900221A70FB68002B02D0FB6870
:105A000000221A70FA680D49FB6941F82320FB68EF
:105A1000002B02D0FB79012B01D000230AE007F113
:105A20000C0107F1080300221846FFF73DFD03466D
:105A3000FB75FB7D18462037BD4680BD6C060020F7
:105A400080B59AB000AFF860B9601346FB71FB688F
:105A5000002B01D10923A9E1FB7903F03F03FB717E
:105A6000FA7907F1140107F108031846FFF71CFD46
:105A7000034687F8673097F86730002B40F08D8138
:105A80007B69BB61BA6807F1180311461846FFF736
:105A9000FFFB034687F8673097F86730002B18D173
:105AA00097F847305BB2002B03DA062387F867309C
:105AB0000FE0FB79012B8CBF01230023DBB21A46D8
:105AC00007F1180311461846FDF7F6FF034687F85D
:105AD0006730FB7903F01C03002B7FD097F8673009
